{
  "address": "0xe60E1650c6b97CA461eA689d6DBe0577936A77A0",
  "abi": [
    {
      "inputs": [],
      "name": "Payments_ZeroBalance",
      "type": "error"
    },
    {
      "anonymous": false,
      "inputs": [
        {
          "indexed": true,
          "internalType": "address",
          "name": "from",
          "type": "address"
        },
        {
          "indexed": true,
          "internalType": "address",
          "name": "to",
          "type": "address"
        },
        {
          "indexed": false,
          "internalType": "uint256",
          "name": "timestamp",
          "type": "uint256"
        },
        {
          "indexed": false,
          "internalType": "string",
          "name": "message",
          "type": "string"
        }
      ],
      "name": "NewTips",
      "type": "event"
    },
    {
      "inputs": [
        {
          "internalType": "address",
          "name": "userAddress",
          "type": "address"
        }
      ],
      "name": "getTipsHistory",
      "outputs": [
        {
          "components": [
            {
              "internalType": "address",
              "name": "from",
              "type": "address"
            },
            {
              "internalType": "uint256",
              "name": "amount",
              "type": "uint256"
            },
            {
              "internalType": "string",
              "name": "message",
              "type": "string"
            },
            {
              "internalType": "uint256",
              "name": "timestamp",
              "type": "uint256"
            }
          ],
          "internalType": "struct SacPayments.TipInfo[]",
          "name": "",
          "type": "tuple[]"
        }
      ],
      "stateMutability": "view",
      "type": "function"
    },
    {
      "inputs": [
        {
          "internalType": "address",
          "name": "",
          "type": "address"
        },
        {
          "internalType": "uint256",
          "name": "",
          "type": "uint256"
        }
      ],
      "name": "profiles",
      "outputs": [
        {
          "internalType": "address",
          "name": "from",
          "type": "address"
        },
        {
          "internalType": "uint256",
          "name": "amount",
          "type": "uint256"
        },
        {
          "internalType": "string",
          "name": "message",
          "type": "string"
        },
        {
          "internalType": "uint256",
          "name": "timestamp",
          "type": "uint256"
        }
      ],
      "stateMutability": "view",
      "type": "function"
    },
    {
      "inputs": [
        {
          "internalType": "address payable",
          "name": "tipAddress",
          "type": "address"
        },
        {
          "internalType": "string",
          "name": "message",
          "type": "string"
        }
      ],
      "name": "tip",
      "outputs": [],
      "stateMutability": "payable",
      "type": "function"
    },
    {
      "inputs": [
        {
          "internalType": "address",
          "name": "",
          "type": "address"
        }
      ],
      "name": "totalDonated",
      "outputs": [
        {
          "internalType": "uint256",
          "name": "",
          "type": "uint256"
        }
      ],
      "stateMutability": "view",
      "type": "function"
    },
    {
      "inputs": [
        {
          "internalType": "address",
          "name": "",
          "type": "address"
        }
      ],
      "name": "totalReceived",
      "outputs": [
        {
          "internalType": "uint256",
          "name": "",
          "type": "uint256"
        }
      ],
      "stateMutability": "view",
      "type": "function"
    }
  ],
  "transactionHash": "0xd7ae42d1b624b2c03e7821e5ab20ed419d6454a5dc2e5a55c372f4753b625f98",
  "args": [],
  "numDeployments": 6,
  "solcInputHash": "af9bca4f1f7eef3be5f6d2422a1403ba",
  "bytecode": "0x608060405234801561001057600080fd5b50610fda806100206000396000f3fe60806040526004361061004a5760003560e01c80630f3a1d471461004f5780631b2ed49c1461008c5780634df9cfb3146100cc578063b151961114610109578063ec4f8e2214610125575b600080fd5b34801561005b57600080fd5b5061007660048036038101906100719190610914565b610162565b6040516100839190610be5565b60405180910390f35b34801561009857600080fd5b506100b360048036038101906100ae919061099d565b61017a565b6040516100c39493929190610b77565b60405180910390f35b3480156100d857600080fd5b506100f360048036038101906100ee9190610914565b61026f565b6040516101009190610be5565b60405180910390f35b610123600480360381019061011e9190610941565b610287565b005b34801561013157600080fd5b5061014c60048036038101906101479190610914565b610538565b6040516101599190610bc3565b60405180910390f35b60026020528060005260406000206000915090505481565b6000602052816000526040600020818154811061019657600080fd5b9060005260206000209060040201600091509150508060000160009054906101000a900473ffffffffffffffffffffffffffffffffffffffff16908060010154908060020180546101e690610dd2565b80601f016020809104026020016040519081016040528092919081815260200182805461021290610dd2565b801561025f5780601f106102345761010080835404028352916020019161025f565b820191906000526020600020905b81548152906001019060200180831161024257829003601f168201915b5050505050908060030154905084565b60016020528060005260406000206000915090505481565b60003410156102c2576040517f828d10f200000000000000000000000000000000000000000000000000000000815260040160405180910390fd5b6000808373ffffffffffffffffffffffffffffffffffffffff1673ffffffffffffffffffffffffffffffffffffffff16815260200190815260200160002060405180608001604052803373ffffffffffffffffffffffffffffffffffffffff16815260200134815260200183815260200142815250908060018154018082558091505060019003906000526020600020906004020160009091909190915060008201518160000160006101000a81548173ffffffffffffffffffffffffffffffffffffffff021916908373ffffffffffffffffffffffffffffffffffffffff1602179055506020820151816001015560408201518160020190805190602001906103cd929190610784565b5060608201518160030155505034600160008473ffffffffffffffffffffffffffffffffffffffff1673ffffffffffffffffffffffffffffffffffffffff16815260200190815260200160002060008282546104299190610cec565b9250508190555034600260003373ffffffffffffffffffffffffffffffffffffffff1673ffffffffffffffffffffffffffffffffffffffff168152602001908152602001600020600082825461047f9190610cec565b925050819055508173ffffffffffffffffffffffffffffffffffffffff166108fc349081150290604051600060405180830381858888f193505050501580156104cc573d6000803e3d6000fd5b508173ffffffffffffffffffffffffffffffffffffffff163373ffffffffffffffffffffffffffffffffffffffff167ffb2c907bb93ca5cdc084f15ca0e87acdbd7b69dd8545ba4cf4f0f84aeec61fb4428460405161052c929190610c00565b60405180910390a35050565b606060008060008473ffffffffffffffffffffffffffffffffffffffff1673ffffffffffffffffffffffffffffffffffffffff16815260200190815260200160002080549050905060008167ffffffffffffffff81111561059c5761059b610f0b565b5b6040519080825280602002602001820160405280156105d557816020015b6105c261080a565b8152602001906001900390816105ba5790505b50905060005b82811015610779576000808673ffffffffffffffffffffffffffffffffffffffff1673ffffffffffffffffffffffffffffffffffffffff168152602001908152602001600020818154811061063357610632610edc565b5b90600052602060002090600402016040518060800160405290816000820160009054906101000a900473ffffffffffffffffffffffffffffffffffffffff1673ffffffffffffffffffffffffffffffffffffffff1673ffffffffffffffffffffffffffffffffffffffff168152602001600182015481526020016002820180546106bc90610dd2565b80601f01602080910402602001604051908101604052809291908181526020018280546106e890610dd2565b80156107355780601f1061070a57610100808354040283529160200191610735565b820191906000526020600020905b81548152906001019060200180831161071857829003601f168201915b5050505050815260200160038201548152505082828151811061075b5761075a610edc565b5b6020026020010181905250808061077190610e35565b9150506105db565b508092505050919050565b82805461079090610dd2565b90600052602060002090601f0160209004810192826107b257600085556107f9565b82601f106107cb57805160ff19168380011785556107f9565b828001600101855582156107f9579182015b828111156107f85782518255916020019190600101906107dd565b5b5090506108069190610848565b5090565b6040518060800160405280600073ffffffffffffffffffffffffffffffffffffffff1681526020016000815260200160608152602001600081525090565b5b80821115610861576000816000905550600101610849565b5090565b600061087861087384610c55565b610c30565b90508281526020810184848401111561089457610893610f3f565b5b61089f848285610d90565b509392505050565b6000813590506108b681610f5f565b92915050565b6000813590506108cb81610f76565b92915050565b600082601f8301126108e6576108e5610f3a565b5b81356108f6848260208601610865565b91505092915050565b60008135905061090e81610f8d565b92915050565b60006020828403121561092a57610929610f49565b5b6000610938848285016108a7565b91505092915050565b6000806040838503121561095857610957610f49565b5b6000610966858286016108bc565b925050602083013567ffffffffffffffff81111561098757610986610f44565b5b610993858286016108d1565b9150509250929050565b600080604083850312156109b4576109b3610f49565b5b60006109c2858286016108a7565b92505060206109d3858286016108ff565b9150509250929050565b60006109e98383610af6565b905092915050565b6109fa81610d42565b82525050565b610a0981610d42565b82525050565b6000610a1a82610c96565b610a248185610cb9565b935083602082028501610a3685610c86565b8060005b85811015610a725784840389528151610a5385826109dd565b9450610a5e83610cac565b925060208a01995050600181019050610a3a565b50829750879550505050505092915050565b6000610a8f82610ca1565b610a998185610cca565b9350610aa9818560208601610d9f565b610ab281610f4e565b840191505092915050565b6000610ac882610ca1565b610ad28185610cdb565b9350610ae2818560208601610d9f565b610aeb81610f4e565b840191505092915050565b6000608083016000830151610b0e60008601826109f1565b506020830151610b216020860182610b59565b5060408301518482036040860152610b398282610a84565b9150506060830151610b4e6060860182610b59565b508091505092915050565b610b6281610d86565b82525050565b610b7181610d86565b82525050565b6000608082019050610b8c6000830187610a00565b610b996020830186610b68565b8181036040830152610bab8185610abd565b9050610bba6060830184610b68565b95945050505050565b60006020820190508181036000830152610bdd8184610a0f565b905092915050565b6000602082019050610bfa6000830184610b68565b92915050565b6000604082019050610c156000830185610b68565b8181036020830152610c278184610abd565b90509392505050565b6000610c3a610c4b565b9050610c468282610e04565b919050565b6000604051905090565b600067ffffffffffffffff821115610c7057610c6f610f0b565b5b610c7982610f4e565b9050602081019050919050565b6000819050602082019050919050565b600081519050919050565b600081519050919050565b6000602082019050919050565b600082825260208201905092915050565b600082825260208201905092915050565b600082825260208201905092915050565b6000610cf782610d86565b9150610d0283610d86565b9250827fffffffffffffffffffffffffffffffffffffffffffffffffffffffffffffffff03821115610d3757610d36610e7e565b5b828201905092915050565b6000610d4d82610d66565b9050919050565b6000610d5f82610d66565b9050919050565b600073ffffffffffffffffffffffffffffffffffffffff82169050919050565b6000819050919050565b82818337600083830152505050565b60005b83811015610dbd578082015181840152602081019050610da2565b83811115610dcc576000848401525b50505050565b60006002820490506001821680610dea57607f821691505b60208210811415610dfe57610dfd610ead565b5b50919050565b610e0d82610f4e565b810181811067ffffffffffffffff82111715610e2c57610e2b610f0b565b5b80604052505050565b6000610e4082610d86565b91507fffffffffffffffffffffffffffffffffffffffffffffffffffffffffffffffff821415610e7357610e72610e7e565b5b600182019050919050565b7f4e487b7100000000000000000000000000000000000000000000000000000000600052601160045260246000fd5b7f4e487b7100000000000000000000000000000000000000000000000000000000600052602260045260246000fd5b7f4e487b7100000000000000000000000000000000000000000000000000000000600052603260045260246000fd5b7f4e487b7100000000000000000000000000000000000000000000000000000000600052604160045260246000fd5b600080fd5b600080fd5b600080fd5b600080fd5b6000601f19601f8301169050919050565b610f6881610d42565b8114610f7357600080fd5b50565b610f7f81610d54565b8114610f8a57600080fd5b50565b610f9681610d86565b8114610fa157600080fd5b5056fea2646970667358221220352a2959fcb95680874782b6abc563a10feb1d606c61376fe185bb21051085fe64736f6c63430008070033",
  "devdoc": {
    "kind": "dev",
    "methods": {},
    "version": 1
  },
  "userdoc": {
    "kind": "user",
    "methods": {},
    "version": 1
  },
  "storageLayout": {
    "storage": [
      {
        "astId": 29,
        "contract": "contracts/SacPayments.sol:SacPayments",
        "label": "profiles",
        "offset": 0,
        "slot": "0",
        "type": "t_mapping(t_address,t_array(t_struct(TipInfo)23_storage)dyn_storage)"
      },
      {
        "astId": 33,
        "contract": "contracts/SacPayments.sol:SacPayments",
        "label": "totalReceived",
        "offset": 0,
        "slot": "1",
        "type": "t_mapping(t_address,t_uint256)"
      },
      {
        "astId": 37,
        "contract": "contracts/SacPayments.sol:SacPayments",
        "label": "totalDonated",
        "offset": 0,
        "slot": "2",
        "type": "t_mapping(t_address,t_uint256)"
      }
    ],
    "types": {
      "t_address": {
        "encoding": "inplace",
        "label": "address",
        "numberOfBytes": "20"
      },
      "t_array(t_struct(TipInfo)23_storage)dyn_storage": {
        "base": "t_struct(TipInfo)23_storage",
        "encoding": "dynamic_array",
        "label": "struct SacPayments.TipInfo[]",
        "numberOfBytes": "32"
      },
      "t_mapping(t_address,t_array(t_struct(TipInfo)23_storage)dyn_storage)": {
        "encoding": "mapping",
        "key": "t_address",
        "label": "mapping(address => struct SacPayments.TipInfo[])",
        "numberOfBytes": "32",
        "value": "t_array(t_struct(TipInfo)23_storage)dyn_storage"
      },
      "t_mapping(t_address,t_uint256)": {
        "encoding": "mapping",
        "key": "t_address",
        "label": "mapping(address => uint256)",
        "numberOfBytes": "32",
        "value": "t_uint256"
      },
      "t_string_storage": {
        "encoding": "bytes",
        "label": "string",
        "numberOfBytes": "32"
      },
      "t_struct(TipInfo)23_storage": {
        "encoding": "inplace",
        "label": "struct SacPayments.TipInfo",
        "members": [
          {
            "astId": 16,
            "contract": "contracts/SacPayments.sol:SacPayments",
            "label": "from",
            "offset": 0,
            "slot": "0",
            "type": "t_address"
          },
          {
            "astId": 18,
            "contract": "contracts/SacPayments.sol:SacPayments",
            "label": "amount",
            "offset": 0,
            "slot": "1",
            "type": "t_uint256"
          },
          {
            "astId": 20,
            "contract": "contracts/SacPayments.sol:SacPayments",
            "label": "message",
            "offset": 0,
            "slot": "2",
            "type": "t_string_storage"
          },
          {
            "astId": 22,
            "contract": "contracts/SacPayments.sol:SacPayments",
            "label": "timestamp",
            "offset": 0,
            "slot": "3",
            "type": "t_uint256"
          }
        ],
        "numberOfBytes": "128"
      },
      "t_uint256": {
        "encoding": "inplace",
        "label": "uint256",
        "numberOfBytes": "32"
      }
    }
  }
}