{"contracts/SacPayments.sol":{"SacPayments":{"abi":[{"inputs":[],"name":"Payments_ZeroBalance","type":"error"},{"anonymous":false,"inputs":[{"indexed":true,"internalType":"address","name":"from","type":"address"},{"indexed":true,"internalType":"address","name":"to","type":"address"},{"indexed":false,"internalType":"uint256","name":"timestamp","type":"uint256"},{"indexed":false,"internalType":"string","name":"message","type":"string"}],"name":"NewTips","type":"event"},{"inputs":[{"internalType":"address","name":"userAddress","type":"address"}],"name":"getTipsHistory","outputs":[{"components":[{"internalType":"address","name":"from","type":"address"},{"internalType":"uint256","name":"amount","type":"uint256"},{"internalType":"string","name":"message","type":"string"},{"internalType":"uint256","name":"timestamp","type":"uint256"}],"internalType":"struct SacPayments.TipInfo[]","name":"","type":"tuple[]"}],"stateMutability":"view","type":"function"},{"inputs":[{"internalType":"address","name":"","type":"address"},{"internalType":"uint256","name":"","type":"uint256"}],"name":"profiles","outputs":[{"internalType":"address","name":"from","type":"address"},{"internalType":"uint256","name":"amount","type":"uint256"},{"internalType":"string","name":"message","type":"string"},{"internalType":"uint256","name":"timestamp","type":"uint256"}],"stateMutability":"view","type":"function"},{"inputs":[{"internalType":"address payable","name":"tipAddress","type":"address"},{"internalType":"string","name":"message","type":"string"}],"name":"tip","outputs":[],"stateMutability":"payable","type":"function"},{"inputs":[{"internalType":"address","name":"","type":"address"}],"name":"totalDonated","outputs":[{"internalType":"uint256","name":"","type":"uint256"}],"stateMutability":"view","type":"function"},{"inputs":[{"internalType":"address","name":"","type":"address"}],"name":"totalReceived","outputs":[{"internalType":"uint256","name":"","type":"uint256"}],"stateMutability":"view","type":"function"}],"devdoc":{"kind":"dev","methods":{},"version":1},"evm":{"bytecode":{"linkReferences":{},"object":"608060405234801561001057600080fd5b50610fda806100206000396000f3fe60806040526004361061004a5760003560e01c80630f3a1d471461004f5780631b2ed49c1461008c5780634df9cfb3146100cc578063b151961114610109578063ec4f8e2214610125575b600080fd5b34801561005b57600080fd5b5061007660048036038101906100719190610914565b610162565b6040516100839190610be5565b60405180910390f35b34801561009857600080fd5b506100b360048036038101906100ae919061099d565b61017a565b6040516100c39493929190610b77565b60405180910390f35b3480156100d857600080fd5b506100f360048036038101906100ee9190610914565b61026f565b6040516101009190610be5565b60405180910390f35b610123600480360381019061011e9190610941565b610287565b005b34801561013157600080fd5b5061014c60048036038101906101479190610914565b610538565b6040516101599190610bc3565b60405180910390f35b60026020528060005260406000206000915090505481565b6000602052816000526040600020818154811061019657600080fd5b9060005260206000209060040201600091509150508060000160009054906101000a900473ffffffffffffffffffffffffffffffffffffffff16908060010154908060020180546101e690610dd2565b80601f016020809104026020016040519081016040528092919081815260200182805461021290610dd2565b801561025f5780601f106102345761010080835404028352916020019161025f565b820191906000526020600020905b81548152906001019060200180831161024257829003601f168201915b5050505050908060030154905084565b60016020528060005260406000206000915090505481565b60003410156102c2576040517f828d10f200000000000000000000000000000000000000000000000000000000815260040160405180910390fd5b6000808373ffffffffffffffffffffffffffffffffffffffff1673ffffffffffffffffffffffffffffffffffffffff16815260200190815260200160002060405180608001604052803373ffffffffffffffffffffffffffffffffffffffff16815260200134815260200183815260200142815250908060018154018082558091505060019003906000526020600020906004020160009091909190915060008201518160000160006101000a81548173ffffffffffffffffffffffffffffffffffffffff021916908373ffffffffffffffffffffffffffffffffffffffff1602179055506020820151816001015560408201518160020190805190602001906103cd929190610784565b5060608201518160030155505034600160008473ffffffffffffffffffffffffffffffffffffffff1673ffffffffffffffffffffffffffffffffffffffff16815260200190815260200160002060008282546104299190610cec565b9250508190555034600260003373ffffffffffffffffffffffffffffffffffffffff1673ffffffffffffffffffffffffffffffffffffffff168152602001908152602001600020600082825461047f9190610cec565b925050819055508173ffffffffffffffffffffffffffffffffffffffff166108fc349081150290604051600060405180830381858888f193505050501580156104cc573d6000803e3d6000fd5b508173ffffffffffffffffffffffffffffffffffffffff163373ffffffffffffffffffffffffffffffffffffffff167ffb2c907bb93ca5cdc084f15ca0e87acdbd7b69dd8545ba4cf4f0f84aeec61fb4428460405161052c929190610c00565b60405180910390a35050565b606060008060008473ffffffffffffffffffffffffffffffffffffffff1673ffffffffffffffffffffffffffffffffffffffff16815260200190815260200160002080549050905060008167ffffffffffffffff81111561059c5761059b610f0b565b5b6040519080825280602002602001820160405280156105d557816020015b6105c261080a565b8152602001906001900390816105ba5790505b50905060005b82811015610779576000808673ffffffffffffffffffffffffffffffffffffffff1673ffffffffffffffffffffffffffffffffffffffff168152602001908152602001600020818154811061063357610632610edc565b5b90600052602060002090600402016040518060800160405290816000820160009054906101000a900473ffffffffffffffffffffffffffffffffffffffff1673ffffffffffffffffffffffffffffffffffffffff1673ffffffffffffffffffffffffffffffffffffffff168152602001600182015481526020016002820180546106bc90610dd2565b80601f01602080910402602001604051908101604052809291908181526020018280546106e890610dd2565b80156107355780601f1061070a57610100808354040283529160200191610735565b820191906000526020600020905b81548152906001019060200180831161071857829003601f168201915b5050505050815260200160038201548152505082828151811061075b5761075a610edc565b5b6020026020010181905250808061077190610e35565b9150506105db565b508092505050919050565b82805461079090610dd2565b90600052602060002090601f0160209004810192826107b257600085556107f9565b82601f106107cb57805160ff19168380011785556107f9565b828001600101855582156107f9579182015b828111156107f85782518255916020019190600101906107dd565b5b5090506108069190610848565b5090565b6040518060800160405280600073ffffffffffffffffffffffffffffffffffffffff1681526020016000815260200160608152602001600081525090565b5b80821115610861576000816000905550600101610849565b5090565b600061087861087384610c55565b610c30565b90508281526020810184848401111561089457610893610f3f565b5b61089f848285610d90565b509392505050565b6000813590506108b681610f5f565b92915050565b6000813590506108cb81610f76565b92915050565b600082601f8301126108e6576108e5610f3a565b5b81356108f6848260208601610865565b91505092915050565b60008135905061090e81610f8d565b92915050565b60006020828403121561092a57610929610f49565b5b6000610938848285016108a7565b91505092915050565b6000806040838503121561095857610957610f49565b5b6000610966858286016108bc565b925050602083013567ffffffffffffffff81111561098757610986610f44565b5b610993858286016108d1565b9150509250929050565b600080604083850312156109b4576109b3610f49565b5b60006109c2858286016108a7565b92505060206109d3858286016108ff565b9150509250929050565b60006109e98383610af6565b905092915050565b6109fa81610d42565b82525050565b610a0981610d42565b82525050565b6000610a1a82610c96565b610a248185610cb9565b935083602082028501610a3685610c86565b8060005b85811015610a725784840389528151610a5385826109dd565b9450610a5e83610cac565b925060208a01995050600181019050610a3a565b50829750879550505050505092915050565b6000610a8f82610ca1565b610a998185610cca565b9350610aa9818560208601610d9f565b610ab281610f4e565b840191505092915050565b6000610ac882610ca1565b610ad28185610cdb565b9350610ae2818560208601610d9f565b610aeb81610f4e565b840191505092915050565b6000608083016000830151610b0e60008601826109f1565b506020830151610b216020860182610b59565b5060408301518482036040860152610b398282610a84565b9150506060830151610b4e6060860182610b59565b508091505092915050565b610b6281610d86565b82525050565b610b7181610d86565b82525050565b6000608082019050610b8c6000830187610a00565b610b996020830186610b68565b8181036040830152610bab8185610abd565b9050610bba6060830184610b68565b95945050505050565b60006020820190508181036000830152610bdd8184610a0f565b905092915050565b6000602082019050610bfa6000830184610b68565b92915050565b6000604082019050610c156000830185610b68565b8181036020830152610c278184610abd565b90509392505050565b6000610c3a610c4b565b9050610c468282610e04565b919050565b6000604051905090565b600067ffffffffffffffff821115610c7057610c6f610f0b565b5b610c7982610f4e565b9050602081019050919050565b6000819050602082019050919050565b600081519050919050565b600081519050919050565b6000602082019050919050565b600082825260208201905092915050565b600082825260208201905092915050565b600082825260208201905092915050565b6000610cf782610d86565b9150610d0283610d86565b9250827fffffffffffffffffffffffffffffffffffffffffffffffffffffffffffffffff03821115610d3757610d36610e7e565b5b828201905092915050565b6000610d4d82610d66565b9050919050565b6000610d5f82610d66565b9050919050565b600073ffffffffffffffffffffffffffffffffffffffff82169050919050565b6000819050919050565b82818337600083830152505050565b60005b83811015610dbd578082015181840152602081019050610da2565b83811115610dcc576000848401525b50505050565b60006002820490506001821680610dea57607f821691505b60208210811415610dfe57610dfd610ead565b5b50919050565b610e0d82610f4e565b810181811067ffffffffffffffff82111715610e2c57610e2b610f0b565b5b80604052505050565b6000610e4082610d86565b91507fffffffffffffffffffffffffffffffffffffffffffffffffffffffffffffffff821415610e7357610e72610e7e565b5b600182019050919050565b7f4e487b7100000000000000000000000000000000000000000000000000000000600052601160045260246000fd5b7f4e487b7100000000000000000000000000000000000000000000000000000000600052602260045260246000fd5b7f4e487b7100000000000000000000000000000000000000000000000000000000600052603260045260246000fd5b7f4e487b7100000000000000000000000000000000000000000000000000000000600052604160045260246000fd5b600080fd5b600080fd5b600080fd5b600080fd5b6000601f19601f8301169050919050565b610f6881610d42565b8114610f7357600080fd5b50565b610f7f81610d54565b8114610f8a57600080fd5b50565b610f9681610d86565b8114610fa157600080fd5b5056fea2646970667358221220352a2959fcb95680874782b6abc563a10feb1d606c61376fe185bb21051085fe64736f6c63430008070033","opcodes":"PUSH1 0x80 PUSH1 0x40 MSTORE CALLVALUE DUP1 ISZERO PUSH2 0x10 JUMPI PUSH1 0x0 DUP1 REVERT JUMPDEST POP PUSH2 0xFDA DUP1 PUSH2 0x20 PUSH1 0x0 CODECOPY PUSH1 0x0 RETURN INVALID PUSH1 0x80 PUSH1 0x40 MSTORE PUSH1 0x4 CALLDATASIZE LT PUSH2 0x4A JUMPI PUSH1 0x0 CALLDATALOAD PUSH1 0xE0 SHR DUP1 PUSH4 0xF3A1D47 EQ PUSH2 0x4F JUMPI DUP1 PUSH4 0x1B2ED49C EQ PUSH2 0x8C JUMPI DUP1 PUSH4 0x4DF9CFB3 EQ PUSH2 0xCC JUMPI DUP1 PUSH4 0xB1519611 EQ PUSH2 0x109 JUMPI DUP1 PUSH4 0xEC4F8E22 EQ PUSH2 0x125 JUMPI JUMPDEST PUSH1 0x0 DUP1 REVERT JUMPDEST CALLVALUE DUP1 ISZERO PUSH2 0x5B JUMPI PUSH1 0x0 DUP1 REVERT JUMPDEST POP PUSH2 0x76 PUSH1 0x4 DUP1 CALLDATASIZE SUB DUP2 ADD SWAP1 PUSH2 0x71 SWAP2 SWAP1 PUSH2 0x914 JUMP JUMPDEST PUSH2 0x162 JUMP JUMPDEST PUSH1 0x40 MLOAD PUSH2 0x83 SWAP2 SWAP1 PUSH2 0xBE5 JUMP JUMPDEST PUSH1 0x40 MLOAD DUP1 SWAP2 SUB SWAP1 RETURN JUMPDEST CALLVALUE DUP1 ISZERO PUSH2 0x98 JUMPI PUSH1 0x0 DUP1 REVERT JUMPDEST POP PUSH2 0xB3 PUSH1 0x4 DUP1 CALLDATASIZE SUB DUP2 ADD SWAP1 PUSH2 0xAE SWAP2 SWAP1 PUSH2 0x99D JUMP JUMPDEST PUSH2 0x17A JUMP JUMPDEST PUSH1 0x40 MLOAD PUSH2 0xC3 SWAP5 SWAP4 SWAP3 SWAP2 SWAP1 PUSH2 0xB77 JUMP JUMPDEST PUSH1 0x40 MLOAD DUP1 SWAP2 SUB SWAP1 RETURN JUMPDEST CALLVALUE DUP1 ISZERO PUSH2 0xD8 JUMPI PUSH1 0x0 DUP1 REVERT JUMPDEST POP PUSH2 0xF3 PUSH1 0x4 DUP1 CALLDATASIZE SUB DUP2 ADD SWAP1 PUSH2 0xEE SWAP2 SWAP1 PUSH2 0x914 JUMP JUMPDEST PUSH2 0x26F JUMP JUMPDEST PUSH1 0x40 MLOAD PUSH2 0x100 SWAP2 SWAP1 PUSH2 0xBE5 JUMP JUMPDEST PUSH1 0x40 MLOAD DUP1 SWAP2 SUB SWAP1 RETURN JUMPDEST PUSH2 0x123 PUSH1 0x4 DUP1 CALLDATASIZE SUB DUP2 ADD SWAP1 PUSH2 0x11E SWAP2 SWAP1 PUSH2 0x941 JUMP JUMPDEST PUSH2 0x287 JUMP JUMPDEST STOP JUMPDEST CALLVALUE DUP1 ISZERO PUSH2 0x131 JUMPI PUSH1 0x0 DUP1 REVERT JUMPDEST POP PUSH2 0x14C PUSH1 0x4 DUP1 CALLDATASIZE SUB DUP2 ADD SWAP1 PUSH2 0x147 SWAP2 SWAP1 PUSH2 0x914 JUMP JUMPDEST PUSH2 0x538 JUMP JUMPDEST PUSH1 0x40 MLOAD PUSH2 0x159 SWAP2 SWAP1 PUSH2 0xBC3 JUMP JUMPDEST PUSH1 0x40 MLOAD DUP1 SWAP2 SUB SWAP1 RETURN JUMPDEST PUSH1 0x2 PUSH1 0x20 MSTORE DUP1 PUSH1 0x0 MSTORE PUSH1 0x40 PUSH1 0x0 KECCAK256 PUSH1 0x0 SWAP2 POP SWAP1 POP SLOAD DUP2 JUMP JUMPDEST PUSH1 0x0 PUSH1 0x20 MSTORE DUP2 PUSH1 0x0 MSTORE PUSH1 0x40 PUSH1 0x0 KECCAK256 DUP2 DUP2 SLOAD DUP2 LT PUSH2 0x196 JUMPI PUSH1 0x0 DUP1 REVERT JUMPDEST SWAP1 PUSH1 0x0 MSTORE PUSH1 0x20 PUSH1 0x0 KECCAK256 SWAP1 PUSH1 0x4 MUL ADD PUSH1 0x0 SWAP2 POP SWAP2 POP POP DUP1 PUSH1 0x0 ADD PUSH1 0x0 SWAP1 SLOAD SWAP1 PUSH2 0x100 EXP SWAP1 DIV PUSH20 0xFFFFFFFFFFFFFFFFFFFFFFFFFFFFFFFFFFFFFFFF AND SWAP1 DUP1 PUSH1 0x1 ADD SLOAD SWAP1 DUP1 PUSH1 0x2 ADD DUP1 SLOAD PUSH2 0x1E6 SWAP1 PUSH2 0xDD2 JUMP JUMPDEST DUP1 PUSH1 0x1F ADD PUSH1 0x20 DUP1 SWAP2 DIV MUL PUSH1 0x20 ADD PUSH1 0x40 MLOAD SWAP1 DUP2 ADD PUSH1 0x40 MSTORE DUP1 SWAP3 SWAP2 SWAP1 DUP2 DUP2 MSTORE PUSH1 0x20 ADD DUP3 DUP1 SLOAD PUSH2 0x212 SWAP1 PUSH2 0xDD2 JUMP JUMPDEST DUP1 ISZERO PUSH2 0x25F JUMPI DUP1 PUSH1 0x1F LT PUSH2 0x234 JUMPI PUSH2 0x100 DUP1 DUP4 SLOAD DIV MUL DUP4 MSTORE SWAP2 PUSH1 0x20 ADD SWAP2 PUSH2 0x25F JUMP JUMPDEST DUP3 ADD SWAP2 SWAP1 PUSH1 0x0 MSTORE PUSH1 0x20 PUSH1 0x0 KECCAK256 SWAP1 JUMPDEST DUP2 SLOAD DUP2 MSTORE SWAP1 PUSH1 0x1 ADD SWAP1 PUSH1 0x20 ADD DUP1 DUP4 GT PUSH2 0x242 JUMPI DUP3 SWAP1 SUB PUSH1 0x1F AND DUP3 ADD SWAP2 JUMPDEST POP POP POP POP POP SWAP1 DUP1 PUSH1 0x3 ADD SLOAD SWAP1 POP DUP5 JUMP JUMPDEST PUSH1 0x1 PUSH1 0x20 MSTORE DUP1 PUSH1 0x0 MSTORE PUSH1 0x40 PUSH1 0x0 KECCAK256 PUSH1 0x0 SWAP2 POP SWAP1 POP SLOAD DUP2 JUMP JUMPDEST PUSH1 0x0 CALLVALUE LT ISZERO PUSH2 0x2C2 JUMPI PUSH1 0x40 MLOAD PUSH32 0x828D10F200000000000000000000000000000000000000000000000000000000 DUP2 MSTORE PUSH1 0x4 ADD PUSH1 0x40 MLOAD DUP1 SWAP2 SUB SWAP1 REVERT JUMPDEST PUSH1 0x0 DUP1 DUP4 PUSH20 0xFFFFFFFFFFFFFFFFFFFFFFFFFFFFFFFFFFFFFFFF AND PUSH20 0xFFFFFFFFFFFFFFFFFFFFFFFFFFFFFFFFFFFFFFFF AND DUP2 MSTORE PUSH1 0x20 ADD SWAP1 DUP2 MSTORE PUSH1 0x20 ADD PUSH1 0x0 KECCAK256 PUSH1 0x40 MLOAD DUP1 PUSH1 0x80 ADD PUSH1 0x40 MSTORE DUP1 CALLER PUSH20 0xFFFFFFFFFFFFFFFFFFFFFFFFFFFFFFFFFFFFFFFF AND DUP2 MSTORE PUSH1 0x20 ADD CALLVALUE DUP2 MSTORE PUSH1 0x20 ADD DUP4 DUP2 MSTORE PUSH1 0x20 ADD TIMESTAMP DUP2 MSTORE POP SWAP1 DUP1 PUSH1 0x1 DUP2 SLOAD ADD DUP1 DUP3 SSTORE DUP1 SWAP2 POP POP PUSH1 0x1 SWAP1 SUB SWAP1 PUSH1 0x0 MSTORE PUSH1 0x20 PUSH1 0x0 KECCAK256 SWAP1 PUSH1 0x4 MUL ADD PUSH1 0x0 SWAP1 SWAP2 SWAP1 SWAP2 SWAP1 SWAP2 POP PUSH1 0x0 DUP3 ADD MLOAD DUP2 PUSH1 0x0 ADD PUSH1 0x0 PUSH2 0x100 EXP DUP2 SLOAD DUP2 PUSH20 0xFFFFFFFFFFFFFFFFFFFFFFFFFFFFFFFFFFFFFFFF MUL NOT AND SWAP1 DUP4 PUSH20 0xFFFFFFFFFFFFFFFFFFFFFFFFFFFFFFFFFFFFFFFF AND MUL OR SWAP1 SSTORE POP PUSH1 0x20 DUP3 ADD MLOAD DUP2 PUSH1 0x1 ADD SSTORE PUSH1 0x40 DUP3 ADD MLOAD DUP2 PUSH1 0x2 ADD SWAP1 DUP1 MLOAD SWAP1 PUSH1 0x20 ADD SWAP1 PUSH2 0x3CD SWAP3 SWAP2 SWAP1 PUSH2 0x784 JUMP JUMPDEST POP PUSH1 0x60 DUP3 ADD MLOAD DUP2 PUSH1 0x3 ADD SSTORE POP POP CALLVALUE PUSH1 0x1 PUSH1 0x0 DUP5 PUSH20 0xFFFFFFFFFFFFFFFFFFFFFFFFFFFFFFFFFFFFFFFF AND PUSH20 0xFFFFFFFFFFFFFFFFFFFFFFFFFFFFFFFFFFFFFFFF AND DUP2 MSTORE PUSH1 0x20 ADD SWAP1 DUP2 MSTORE PUSH1 0x20 ADD PUSH1 0x0 KECCAK256 PUSH1 0x0 DUP3 DUP3 SLOAD PUSH2 0x429 SWAP2 SWAP1 PUSH2 0xCEC JUMP JUMPDEST SWAP3 POP POP DUP2 SWAP1 SSTORE POP CALLVALUE PUSH1 0x2 PUSH1 0x0 CALLER PUSH20 0xFFFFFFFFFFFFFFFFFFFFFFFFFFFFFFFFFFFFFFFF AND PUSH20 0xFFFFFFFFFFFFFFFFFFFFFFFFFFFFFFFFFFFFFFFF AND DUP2 MSTORE PUSH1 0x20 ADD SWAP1 DUP2 MSTORE PUSH1 0x20 ADD PUSH1 0x0 KECCAK256 PUSH1 0x0 DUP3 DUP3 SLOAD PUSH2 0x47F SWAP2 SWAP1 PUSH2 0xCEC JUMP JUMPDEST SWAP3 POP POP DUP2 SWAP1 SSTORE POP DUP2 PUSH20 0xFFFFFFFFFFFFFFFFFFFFFFFFFFFFFFFFFFFFFFFF AND PUSH2 0x8FC CALLVALUE SWAP1 DUP2 ISZERO MUL SWAP1 PUSH1 0x40 MLOAD PUSH1 0x0 PUSH1 0x40 MLOAD DUP1 DUP4 SUB DUP2 DUP6 DUP9 DUP9 CALL SWAP4 POP POP POP POP ISZERO DUP1 ISZERO PUSH2 0x4CC JUMPI RETURNDATASIZE PUSH1 0x0 DUP1 RETURNDATACOPY RETURNDATASIZE PUSH1 0x0 REVERT JUMPDEST POP DUP2 PUSH20 0xFFFFFFFFFFFFFFFFFFFFFFFFFFFFFFFFFFFFFFFF AND CALLER PUSH20 0xFFFFFFFFFFFFFFFFFFFFFFFFFFFFFFFFFFFFFFFF AND PUSH32 0xFB2C907BB93CA5CDC084F15CA0E87ACDBD7B69DD8545BA4CF4F0F84AEEC61FB4 TIMESTAMP DUP5 PUSH1 0x40 MLOAD PUSH2 0x52C SWAP3 SWAP2 SWAP1 PUSH2 0xC00 JUMP JUMPDEST PUSH1 0x40 MLOAD DUP1 SWAP2 SUB SWAP1 LOG3 POP POP JUMP JUMPDEST PUSH1 0x60 PUSH1 0x0 DUP1 PUSH1 0x0 DUP5 PUSH20 0xFFFFFFFFFFFFFFFFFFFFFFFFFFFFFFFFFFFFFFFF AND PUSH20 0xFFFFFFFFFFFFFFFFFFFFFFFFFFFFFFFFFFFFFFFF AND DUP2 MSTORE PUSH1 0x20 ADD SWAP1 DUP2 MSTORE PUSH1 0x20 ADD PUSH1 0x0 KECCAK256 DUP1 SLOAD SWAP1 POP SWAP1 POP PUSH1 0x0 DUP2 PUSH8 0xFFFFFFFFFFFFFFFF DUP2 GT ISZERO PUSH2 0x59C JUMPI PUSH2 0x59B PUSH2 0xF0B JUMP JUMPDEST JUMPDEST PUSH1 0x40 MLOAD SWAP1 DUP1 DUP3 MSTORE DUP1 PUSH1 0x20 MUL PUSH1 0x20 ADD DUP3 ADD PUSH1 0x40 MSTORE DUP1 ISZERO PUSH2 0x5D5 JUMPI DUP2 PUSH1 0x20 ADD JUMPDEST PUSH2 0x5C2 PUSH2 0x80A JUMP JUMPDEST DUP2 MSTORE PUSH1 0x20 ADD SWAP1 PUSH1 0x1 SWAP1 SUB SWAP1 DUP2 PUSH2 0x5BA JUMPI SWAP1 POP JUMPDEST POP SWAP1 POP PUSH1 0x0 JUMPDEST DUP3 DUP2 LT ISZERO PUSH2 0x779 JUMPI PUSH1 0x0 DUP1 DUP7 PUSH20 0xFFFFFFFFFFFFFFFFFFFFFFFFFFFFFFFFFFFFFFFF AND PUSH20 0xFFFFFFFFFFFFFFFFFFFFFFFFFFFFFFFFFFFFFFFF AND DUP2 MSTORE PUSH1 0x20 ADD SWAP1 DUP2 MSTORE PUSH1 0x20 ADD PUSH1 0x0 KECCAK256 DUP2 DUP2 SLOAD DUP2 LT PUSH2 0x633 JUMPI PUSH2 0x632 PUSH2 0xEDC JUMP JUMPDEST JUMPDEST SWAP1 PUSH1 0x0 MSTORE PUSH1 0x20 PUSH1 0x0 KECCAK256 SWAP1 PUSH1 0x4 MUL ADD PUSH1 0x40 MLOAD DUP1 PUSH1 0x80 ADD PUSH1 0x40 MSTORE SWAP1 DUP2 PUSH1 0x0 DUP3 ADD PUSH1 0x0 SWAP1 SLOAD SWAP1 PUSH2 0x100 EXP SWAP1 DIV PUSH20 0xFFFFFFFFFFFFFFFFFFFFFFFFFFFFFFFFFFFFFFFF AND PUSH20 0xFFFFFFFFFFFFFFFFFFFFFFFFFFFFFFFFFFFFFFFF AND PUSH20 0xFFFFFFFFFFFFFFFFFFFFFFFFFFFFFFFFFFFFFFFF AND DUP2 MSTORE PUSH1 0x20 ADD PUSH1 0x1 DUP3 ADD SLOAD DUP2 MSTORE PUSH1 0x20 ADD PUSH1 0x2 DUP3 ADD DUP1 SLOAD PUSH2 0x6BC SWAP1 PUSH2 0xDD2 JUMP JUMPDEST DUP1 PUSH1 0x1F ADD PUSH1 0x20 DUP1 SWAP2 DIV MUL PUSH1 0x20 ADD PUSH1 0x40 MLOAD SWAP1 DUP2 ADD PUSH1 0x40 MSTORE DUP1 SWAP3 SWAP2 SWAP1 DUP2 DUP2 MSTORE PUSH1 0x20 ADD DUP3 DUP1 SLOAD PUSH2 0x6E8 SWAP1 PUSH2 0xDD2 JUMP JUMPDEST DUP1 ISZERO PUSH2 0x735 JUMPI DUP1 PUSH1 0x1F LT PUSH2 0x70A JUMPI PUSH2 0x100 DUP1 DUP4 SLOAD DIV MUL DUP4 MSTORE SWAP2 PUSH1 0x20 ADD SWAP2 PUSH2 0x735 JUMP JUMPDEST DUP3 ADD SWAP2 SWAP1 PUSH1 0x0 MSTORE PUSH1 0x20 PUSH1 0x0 KECCAK256 SWAP1 JUMPDEST DUP2 SLOAD DUP2 MSTORE SWAP1 PUSH1 0x1 ADD SWAP1 PUSH1 0x20 ADD DUP1 DUP4 GT PUSH2 0x718 JUMPI DUP3 SWAP1 SUB PUSH1 0x1F AND DUP3 ADD SWAP2 JUMPDEST POP POP POP POP POP DUP2 MSTORE PUSH1 0x20 ADD PUSH1 0x3 DUP3 ADD SLOAD DUP2 MSTORE POP POP DUP3 DUP3 DUP2 MLOAD DUP2 LT PUSH2 0x75B JUMPI PUSH2 0x75A PUSH2 0xEDC JUMP JUMPDEST JUMPDEST PUSH1 0x20 MUL PUSH1 0x20 ADD ADD DUP2 SWAP1 MSTORE POP DUP1 DUP1 PUSH2 0x771 SWAP1 PUSH2 0xE35 JUMP JUMPDEST SWAP2 POP POP PUSH2 0x5DB JUMP JUMPDEST POP DUP1 SWAP3 POP POP POP SWAP2 SWAP1 POP JUMP JUMPDEST DUP3 DUP1 SLOAD PUSH2 0x790 SWAP1 PUSH2 0xDD2 JUMP JUMPDEST SWAP1 PUSH1 0x0 MSTORE PUSH1 0x20 PUSH1 0x0 KECCAK256 SWAP1 PUSH1 0x1F ADD PUSH1 0x20 SWAP1 DIV DUP2 ADD SWAP3 DUP3 PUSH2 0x7B2 JUMPI PUSH1 0x0 DUP6 SSTORE PUSH2 0x7F9 JUMP JUMPDEST DUP3 PUSH1 0x1F LT PUSH2 0x7CB JUMPI DUP1 MLOAD PUSH1 0xFF NOT AND DUP4 DUP1 ADD OR DUP6 SSTORE PUSH2 0x7F9 JUMP JUMPDEST DUP3 DUP1 ADD PUSH1 0x1 ADD DUP6 SSTORE DUP3 ISZERO PUSH2 0x7F9 JUMPI SWAP2 DUP3 ADD JUMPDEST DUP3 DUP2 GT ISZERO PUSH2 0x7F8 JUMPI DUP3 MLOAD DUP3 SSTORE SWAP2 PUSH1 0x20 ADD SWAP2 SWAP1 PUSH1 0x1 ADD SWAP1 PUSH2 0x7DD JUMP JUMPDEST JUMPDEST POP SWAP1 POP PUSH2 0x806 SWAP2 SWAP1 PUSH2 0x848 JUMP JUMPDEST POP SWAP1 JUMP JUMPDEST PUSH1 0x40 MLOAD DUP1 PUSH1 0x80 ADD PUSH1 0x40 MSTORE DUP1 PUSH1 0x0 PUSH20 0xFFFFFFFFFFFFFFFFFFFFFFFFFFFFFFFFFFFFFFFF AND DUP2 MSTORE PUSH1 0x20 ADD PUSH1 0x0 DUP2 MSTORE PUSH1 0x20 ADD PUSH1 0x60 DUP2 MSTORE PUSH1 0x20 ADD PUSH1 0x0 DUP2 MSTORE POP SWAP1 JUMP JUMPDEST JUMPDEST DUP1 DUP3 GT ISZERO PUSH2 0x861 JUMPI PUSH1 0x0 DUP2 PUSH1 0x0 SWAP1 SSTORE POP PUSH1 0x1 ADD PUSH2 0x849 JUMP JUMPDEST POP SWAP1 JUMP JUMPDEST PUSH1 0x0 PUSH2 0x878 PUSH2 0x873 DUP5 PUSH2 0xC55 JUMP JUMPDEST PUSH2 0xC30 JUMP JUMPDEST SWAP1 POP DUP3 DUP2 MSTORE PUSH1 0x20 DUP2 ADD DUP5 DUP5 DUP5 ADD GT ISZERO PUSH2 0x894 JUMPI PUSH2 0x893 PUSH2 0xF3F JUMP JUMPDEST JUMPDEST PUSH2 0x89F DUP5 DUP3 DUP6 PUSH2 0xD90 JUMP JUMPDEST POP SWAP4 SWAP3 POP POP POP JUMP JUMPDEST PUSH1 0x0 DUP2 CALLDATALOAD SWAP1 POP PUSH2 0x8B6 DUP2 PUSH2 0xF5F JUMP JUMPDEST SWAP3 SWAP2 POP POP JUMP JUMPDEST PUSH1 0x0 DUP2 CALLDATALOAD SWAP1 POP PUSH2 0x8CB DUP2 PUSH2 0xF76 JUMP JUMPDEST SWAP3 SWAP2 POP POP JUMP JUMPDEST PUSH1 0x0 DUP3 PUSH1 0x1F DUP4 ADD SLT PUSH2 0x8E6 JUMPI PUSH2 0x8E5 PUSH2 0xF3A JUMP JUMPDEST JUMPDEST DUP2 CALLDATALOAD PUSH2 0x8F6 DUP5 DUP3 PUSH1 0x20 DUP7 ADD PUSH2 0x865 JUMP JUMPDEST SWAP2 POP POP SWAP3 SWAP2 POP POP JUMP JUMPDEST PUSH1 0x0 DUP2 CALLDATALOAD SWAP1 POP PUSH2 0x90E DUP2 PUSH2 0xF8D JUMP JUMPDEST SWAP3 SWAP2 POP POP JUMP JUMPDEST PUSH1 0x0 PUSH1 0x20 DUP3 DUP5 SUB SLT ISZERO PUSH2 0x92A JUMPI PUSH2 0x929 PUSH2 0xF49 JUMP JUMPDEST JUMPDEST PUSH1 0x0 PUSH2 0x938 DUP5 DUP3 DUP6 ADD PUSH2 0x8A7 JUMP JUMPDEST SWAP2 POP POP SWAP3 SWAP2 POP POP JUMP JUMPDEST PUSH1 0x0 DUP1 PUSH1 0x40 DUP4 DUP6 SUB SLT ISZERO PUSH2 0x958 JUMPI PUSH2 0x957 PUSH2 0xF49 JUMP JUMPDEST JUMPDEST PUSH1 0x0 PUSH2 0x966 DUP6 DUP3 DUP7 ADD PUSH2 0x8BC JUMP JUMPDEST SWAP3 POP POP PUSH1 0x20 DUP4 ADD CALLDATALOAD PUSH8 0xFFFFFFFFFFFFFFFF DUP2 GT ISZERO PUSH2 0x987 JUMPI PUSH2 0x986 PUSH2 0xF44 JUMP JUMPDEST JUMPDEST PUSH2 0x993 DUP6 DUP3 DUP7 ADD PUSH2 0x8D1 JUMP JUMPDEST SWAP2 POP POP SWAP3 POP SWAP3 SWAP1 POP JUMP JUMPDEST PUSH1 0x0 DUP1 PUSH1 0x40 DUP4 DUP6 SUB SLT ISZERO PUSH2 0x9B4 JUMPI PUSH2 0x9B3 PUSH2 0xF49 JUMP JUMPDEST JUMPDEST PUSH1 0x0 PUSH2 0x9C2 DUP6 DUP3 DUP7 ADD PUSH2 0x8A7 JUMP JUMPDEST SWAP3 POP POP PUSH1 0x20 PUSH2 0x9D3 DUP6 DUP3 DUP7 ADD PUSH2 0x8FF JUMP JUMPDEST SWAP2 POP POP SWAP3 POP SWAP3 SWAP1 POP JUMP JUMPDEST PUSH1 0x0 PUSH2 0x9E9 DUP4 DUP4 PUSH2 0xAF6 JUMP JUMPDEST SWAP1 POP SWAP3 SWAP2 POP POP JUMP JUMPDEST PUSH2 0x9FA DUP2 PUSH2 0xD42 JUMP JUMPDEST DUP3 MSTORE POP POP JUMP JUMPDEST PUSH2 0xA09 DUP2 PUSH2 0xD42 JUMP JUMPDEST DUP3 MSTORE POP POP JUMP JUMPDEST PUSH1 0x0 PUSH2 0xA1A DUP3 PUSH2 0xC96 JUMP JUMPDEST PUSH2 0xA24 DUP2 DUP6 PUSH2 0xCB9 JUMP JUMPDEST SWAP4 POP DUP4 PUSH1 0x20 DUP3 MUL DUP6 ADD PUSH2 0xA36 DUP6 PUSH2 0xC86 JUMP JUMPDEST DUP1 PUSH1 0x0 JUMPDEST DUP6 DUP2 LT ISZERO PUSH2 0xA72 JUMPI DUP5 DUP5 SUB DUP10 MSTORE DUP2 MLOAD PUSH2 0xA53 DUP6 DUP3 PUSH2 0x9DD JUMP JUMPDEST SWAP5 POP PUSH2 0xA5E DUP4 PUSH2 0xCAC JUMP JUMPDEST SWAP3 POP PUSH1 0x20 DUP11 ADD SWAP10 POP POP PUSH1 0x1 DUP2 ADD SWAP1 POP PUSH2 0xA3A JUMP JUMPDEST POP DUP3 SWAP8 POP DUP8 SWAP6 POP POP POP POP POP POP SWAP3 SWAP2 POP POP JUMP JUMPDEST PUSH1 0x0 PUSH2 0xA8F DUP3 PUSH2 0xCA1 JUMP JUMPDEST PUSH2 0xA99 DUP2 DUP6 PUSH2 0xCCA JUMP JUMPDEST SWAP4 POP PUSH2 0xAA9 DUP2 DUP6 PUSH1 0x20 DUP7 ADD PUSH2 0xD9F JUMP JUMPDEST PUSH2 0xAB2 DUP2 PUSH2 0xF4E JUMP JUMPDEST DUP5 ADD SWAP2 POP POP SWAP3 SWAP2 POP POP JUMP JUMPDEST PUSH1 0x0 PUSH2 0xAC8 DUP3 PUSH2 0xCA1 JUMP JUMPDEST PUSH2 0xAD2 DUP2 DUP6 PUSH2 0xCDB JUMP JUMPDEST SWAP4 POP PUSH2 0xAE2 DUP2 DUP6 PUSH1 0x20 DUP7 ADD PUSH2 0xD9F JUMP JUMPDEST PUSH2 0xAEB DUP2 PUSH2 0xF4E JUMP JUMPDEST DUP5 ADD SWAP2 POP POP SWAP3 SWAP2 POP POP JUMP JUMPDEST PUSH1 0x0 PUSH1 0x80 DUP4 ADD PUSH1 0x0 DUP4 ADD MLOAD PUSH2 0xB0E PUSH1 0x0 DUP7 ADD DUP3 PUSH2 0x9F1 JUMP JUMPDEST POP PUSH1 0x20 DUP4 ADD MLOAD PUSH2 0xB21 PUSH1 0x20 DUP7 ADD DUP3 PUSH2 0xB59 JUMP JUMPDEST POP PUSH1 0x40 DUP4 ADD MLOAD DUP5 DUP3 SUB PUSH1 0x40 DUP7 ADD MSTORE PUSH2 0xB39 DUP3 DUP3 PUSH2 0xA84 JUMP JUMPDEST SWAP2 POP POP PUSH1 0x60 DUP4 ADD MLOAD PUSH2 0xB4E PUSH1 0x60 DUP7 ADD DUP3 PUSH2 0xB59 JUMP JUMPDEST POP DUP1 SWAP2 POP POP SWAP3 SWAP2 POP POP JUMP JUMPDEST PUSH2 0xB62 DUP2 PUSH2 0xD86 JUMP JUMPDEST DUP3 MSTORE POP POP JUMP JUMPDEST PUSH2 0xB71 DUP2 PUSH2 0xD86 JUMP JUMPDEST DUP3 MSTORE POP POP JUMP JUMPDEST PUSH1 0x0 PUSH1 0x80 DUP3 ADD SWAP1 POP PUSH2 0xB8C PUSH1 0x0 DUP4 ADD DUP8 PUSH2 0xA00 JUMP JUMPDEST PUSH2 0xB99 PUSH1 0x20 DUP4 ADD DUP7 PUSH2 0xB68 JUMP JUMPDEST DUP2 DUP2 SUB PUSH1 0x40 DUP4 ADD MSTORE PUSH2 0xBAB DUP2 DUP6 PUSH2 0xABD JUMP JUMPDEST SWAP1 POP PUSH2 0xBBA PUSH1 0x60 DUP4 ADD DUP5 PUSH2 0xB68 JUMP JUMPDEST SWAP6 SWAP5 POP POP POP POP POP JUMP JUMPDEST PUSH1 0x0 PUSH1 0x20 DUP3 ADD SWAP1 POP DUP2 DUP2 SUB PUSH1 0x0 DUP4 ADD MSTORE PUSH2 0xBDD DUP2 DUP5 PUSH2 0xA0F JUMP JUMPDEST SWAP1 POP SWAP3 SWAP2 POP POP JUMP JUMPDEST PUSH1 0x0 PUSH1 0x20 DUP3 ADD SWAP1 POP PUSH2 0xBFA PUSH1 0x0 DUP4 ADD DUP5 PUSH2 0xB68 JUMP JUMPDEST SWAP3 SWAP2 POP POP JUMP JUMPDEST PUSH1 0x0 PUSH1 0x40 DUP3 ADD SWAP1 POP PUSH2 0xC15 PUSH1 0x0 DUP4 ADD DUP6 PUSH2 0xB68 JUMP JUMPDEST DUP2 DUP2 SUB PUSH1 0x20 DUP4 ADD MSTORE PUSH2 0xC27 DUP2 DUP5 PUSH2 0xABD JUMP JUMPDEST SWAP1 POP SWAP4 SWAP3 POP POP POP JUMP JUMPDEST PUSH1 0x0 PUSH2 0xC3A PUSH2 0xC4B JUMP JUMPDEST SWAP1 POP PUSH2 0xC46 DUP3 DUP3 PUSH2 0xE04 JUMP JUMPDEST SWAP2 SWAP1 POP JUMP JUMPDEST PUSH1 0x0 PUSH1 0x40 MLOAD SWAP1 POP SWAP1 JUMP JUMPDEST PUSH1 0x0 PUSH8 0xFFFFFFFFFFFFFFFF DUP3 GT ISZERO PUSH2 0xC70 JUMPI PUSH2 0xC6F PUSH2 0xF0B JUMP JUMPDEST JUMPDEST PUSH2 0xC79 DUP3 PUSH2 0xF4E JUMP JUMPDEST SWAP1 POP PUSH1 0x20 DUP2 ADD SWAP1 POP SWAP2 SWAP1 POP JUMP JUMPDEST PUSH1 0x0 DUP2 SWAP1 POP PUSH1 0x20 DUP3 ADD SWAP1 POP SWAP2 SWAP1 POP JUMP JUMPDEST PUSH1 0x0 DUP2 MLOAD SWAP1 POP SWAP2 SWAP1 POP JUMP JUMPDEST PUSH1 0x0 DUP2 MLOAD SWAP1 POP SWAP2 SWAP1 POP JUMP JUMPDEST PUSH1 0x0 PUSH1 0x20 DUP3 ADD SWAP1 POP SWAP2 SWAP1 POP JUMP JUMPDEST PUSH1 0x0 DUP3 DUP3 MSTORE PUSH1 0x20 DUP3 ADD SWAP1 POP SWAP3 SWAP2 POP POP JUMP JUMPDEST PUSH1 0x0 DUP3 DUP3 MSTORE PUSH1 0x20 DUP3 ADD SWAP1 POP SWAP3 SWAP2 POP POP JUMP JUMPDEST PUSH1 0x0 DUP3 DUP3 MSTORE PUSH1 0x20 DUP3 ADD SWAP1 POP SWAP3 SWAP2 POP POP JUMP JUMPDEST PUSH1 0x0 PUSH2 0xCF7 DUP3 PUSH2 0xD86 JUMP JUMPDEST SWAP2 POP PUSH2 0xD02 DUP4 PUSH2 0xD86 JUMP JUMPDEST SWAP3 POP DUP3 PUSH32 0xFFFFFFFFFFFFFFFFFFFFFFFFFFFFFFFFFFFFFFFFFFFFFFFFFFFFFFFFFFFFFFFF SUB DUP3 GT ISZERO PUSH2 0xD37 JUMPI PUSH2 0xD36 PUSH2 0xE7E JUMP JUMPDEST JUMPDEST DUP3 DUP3 ADD SWAP1 POP SWAP3 SWAP2 POP POP JUMP JUMPDEST PUSH1 0x0 PUSH2 0xD4D DUP3 PUSH2 0xD66 JUMP JUMPDEST SWAP1 POP SWAP2 SWAP1 POP JUMP JUMPDEST PUSH1 0x0 PUSH2 0xD5F DUP3 PUSH2 0xD66 JUMP JUMPDEST SWAP1 POP SWAP2 SWAP1 POP JUMP JUMPDEST PUSH1 0x0 PUSH20 0xFFFFFFFFFFFFFFFFFFFFFFFFFFFFFFFFFFFFFFFF DUP3 AND SWAP1 POP SWAP2 SWAP1 POP JUMP JUMPDEST PUSH1 0x0 DUP2 SWAP1 POP SWAP2 SWAP1 POP JUMP JUMPDEST DUP3 DUP2 DUP4 CALLDATACOPY PUSH1 0x0 DUP4 DUP4 ADD MSTORE POP POP POP JUMP JUMPDEST PUSH1 0x0 JUMPDEST DUP4 DUP2 LT ISZERO PUSH2 0xDBD JUMPI DUP1 DUP3 ADD MLOAD DUP2 DUP5 ADD MSTORE PUSH1 0x20 DUP2 ADD SWAP1 POP PUSH2 0xDA2 JUMP JUMPDEST DUP4 DUP2 GT ISZERO PUSH2 0xDCC JUMPI PUSH1 0x0 DUP5 DUP5 ADD MSTORE JUMPDEST POP POP POP POP JUMP JUMPDEST PUSH1 0x0 PUSH1 0x2 DUP3 DIV SWAP1 POP PUSH1 0x1 DUP3 AND DUP1 PUSH2 0xDEA JUMPI PUSH1 0x7F DUP3 AND SWAP2 POP JUMPDEST PUSH1 0x20 DUP3 LT DUP2 EQ ISZERO PUSH2 0xDFE JUMPI PUSH2 0xDFD PUSH2 0xEAD JUMP JUMPDEST JUMPDEST POP SWAP2 SWAP1 POP JUMP JUMPDEST PUSH2 0xE0D DUP3 PUSH2 0xF4E JUMP JUMPDEST DUP2 ADD DUP2 DUP2 LT PUSH8 0xFFFFFFFFFFFFFFFF DUP3 GT OR ISZERO PUSH2 0xE2C JUMPI PUSH2 0xE2B PUSH2 0xF0B JUMP JUMPDEST JUMPDEST DUP1 PUSH1 0x40 MSTORE POP POP POP JUMP JUMPDEST PUSH1 0x0 PUSH2 0xE40 DUP3 PUSH2 0xD86 JUMP JUMPDEST SWAP2 POP PUSH32 0xFFFFFFFFFFFFFFFFFFFFFFFFFFFFFFFFFFFFFFFFFFFFFFFFFFFFFFFFFFFFFFFF DUP3 EQ ISZERO PUSH2 0xE73 JUMPI PUSH2 0xE72 PUSH2 0xE7E JUMP JUMPDEST JUMPDEST PUSH1 0x1 DUP3 ADD SWAP1 POP SWAP2 SWAP1 POP JUMP JUMPDEST PUSH32 0x4E487B7100000000000000000000000000000000000000000000000000000000 PUSH1 0x0 MSTORE PUSH1 0x11 PUSH1 0x4 MSTORE PUSH1 0x24 PUSH1 0x0 REVERT JUMPDEST PUSH32 0x4E487B7100000000000000000000000000000000000000000000000000000000 PUSH1 0x0 MSTORE PUSH1 0x22 PUSH1 0x4 MSTORE PUSH1 0x24 PUSH1 0x0 REVERT JUMPDEST PUSH32 0x4E487B7100000000000000000000000000000000000000000000000000000000 PUSH1 0x0 MSTORE PUSH1 0x32 PUSH1 0x4 MSTORE PUSH1 0x24 PUSH1 0x0 REVERT JUMPDEST PUSH32 0x4E487B7100000000000000000000000000000000000000000000000000000000 PUSH1 0x0 MSTORE PUSH1 0x41 PUSH1 0x4 MSTORE PUSH1 0x24 PUSH1 0x0 REVERT JUMPDEST PUSH1 0x0 DUP1 REVERT JUMPDEST PUSH1 0x0 DUP1 REVERT JUMPDEST PUSH1 0x0 DUP1 REVERT JUMPDEST PUSH1 0x0 DUP1 REVERT JUMPDEST PUSH1 0x0 PUSH1 0x1F NOT PUSH1 0x1F DUP4 ADD AND SWAP1 POP SWAP2 SWAP1 POP JUMP JUMPDEST PUSH2 0xF68 DUP2 PUSH2 0xD42 JUMP JUMPDEST DUP2 EQ PUSH2 0xF73 JUMPI PUSH1 0x0 DUP1 REVERT JUMPDEST POP JUMP JUMPDEST PUSH2 0xF7F DUP2 PUSH2 0xD54 JUMP JUMPDEST DUP2 EQ PUSH2 0xF8A JUMPI PUSH1 0x0 DUP1 REVERT JUMPDEST POP JUMP JUMPDEST PUSH2 0xF96 DUP2 PUSH2 0xD86 JUMP JUMPDEST DUP2 EQ PUSH2 0xFA1 JUMPI PUSH1 0x0 DUP1 REVERT JUMPDEST POP JUMP INVALID LOG2 PUSH5 0x6970667358 0x22 SLT KECCAK256 CALLDATALOAD 0x2A 0x29 MSIZE 0xFC 0xB9 JUMP DUP1 DUP8 SELFBALANCE DUP3 0xB6 0xAB 0xC5 PUSH4 0xA10FEB1D PUSH1 0x6C PUSH2 0x376F 0xE1 DUP6 0xBB 0x21 SDIV LT DUP6 INVALID PUSH5 0x736F6C6343 STOP ADDMOD SMOD STOP CALLER "},"gasEstimates":{"creation":{"codeDepositCost":"811600","executionCost":"844","totalCost":"812444"},"external":{"getTipsHistory(address)":"infinite","profiles(address,uint256)":"infinite","tip(address,string)":"infinite","totalDonated(address)":"2792","totalReceived(address)":"2836"}},"methodIdentifiers":{"getTipsHistory(address)":"ec4f8e22","profiles(address,uint256)":"1b2ed49c","tip(address,string)":"b1519611","totalDonated(address)":"0f3a1d47","totalReceived(address)":"4df9cfb3"}},"storageLayout":{"storage":[{"astId":29,"contract":"contracts/SacPayments.sol:SacPayments","label":"profiles","offset":0,"slot":"0","type":"t_mapping(t_address,t_array(t_struct(TipInfo)23_storage)dyn_storage)"},{"astId":33,"contract":"contracts/SacPayments.sol:SacPayments","label":"totalReceived","offset":0,"slot":"1","type":"t_mapping(t_address,t_uint256)"},{"astId":37,"contract":"contracts/SacPayments.sol:SacPayments","label":"totalDonated","offset":0,"slot":"2","type":"t_mapping(t_address,t_uint256)"}],"types":{"t_address":{"encoding":"inplace","label":"address","numberOfBytes":"20"},"t_array(t_struct(TipInfo)23_storage)dyn_storage":{"base":"t_struct(TipInfo)23_storage","encoding":"dynamic_array","label":"struct SacPayments.TipInfo[]","numberOfBytes":"32"},"t_mapping(t_address,t_array(t_struct(TipInfo)23_storage)dyn_storage)":{"encoding":"mapping","key":"t_address","label":"mapping(address => struct SacPayments.TipInfo[])","numberOfBytes":"32","value":"t_array(t_struct(TipInfo)23_storage)dyn_storage"},"t_mapping(t_address,t_uint256)":{"encoding":"mapping","key":"t_address","label":"mapping(address => uint256)","numberOfBytes":"32","value":"t_uint256"},"t_string_storage":{"encoding":"bytes","label":"string","numberOfBytes":"32"},"t_struct(TipInfo)23_storage":{"encoding":"inplace","label":"struct SacPayments.TipInfo","members":[{"astId":16,"contract":"contracts/SacPayments.sol:SacPayments","label":"from","offset":0,"slot":"0","type":"t_address"},{"astId":18,"contract":"contracts/SacPayments.sol:SacPayments","label":"amount","offset":0,"slot":"1","type":"t_uint256"},{"astId":20,"contract":"contracts/SacPayments.sol:SacPayments","label":"message","offset":0,"slot":"2","type":"t_string_storage"},{"astId":22,"contract":"contracts/SacPayments.sol:SacPayments","label":"timestamp","offset":0,"slot":"3","type":"t_uint256"}],"numberOfBytes":"128"},"t_uint256":{"encoding":"inplace","label":"uint256","numberOfBytes":"32"}}},"userdoc":{"kind":"user","methods":{},"version":1}}}}